:10000000F62FFF1B0B2883137F1883170008840A21
:100010000319FF0A080000308A000408840A8207D6
:1000200000342034453472347234003420344C347B
:100030006F34773400344F346B34613479340034A6
:1000400031343A342034003432343A3420340034F9
:040050004334003401
:1002D400C3308316031381000800F0000130831239
:1002E4000313850070088600053085000130850001
:1002F40008000630831603139F008312031385013D
:1003040086018316031386010830850008007108EE
:10031400F3007008F20094290130F2020030031C4B
:10032400F303F30272087304031D99299A298E2991
:100334000800F401AC2974087107840072080318DA
:10034400720A83120313FF0001206F210130FF00A2
:100354007F08F40773087402031CB129B2299D298C
:1003640008007B216A216430F0000030F10089210B
:100374003830F6210E30F6210130F6210630F62110
:10038400C830F0000030F10089211C22DE23003A3D
:100394000319CD29CE29C8299124C8290028F4019C
:1003A400F501701CD629D729DD297208F407031832
:1003B400F50A7308F50701300310F20DF30DFF3E43
:1003C400031DDE2901300310F10CF00CFF3E031D68
:1003D400E52970087104031DF029F129D329750852
:1003E400F1007408F0000800F40074088312031389
:1003F400860005080319FF29002A062A85013230E0
:10040400F0000030F10089210A30F0000030F100E2
:1004140089218312031305153230F0000030F100F6
:1004240089218312031305116430F0000030F100B8
:10043400892108001030F1008030F2000330F3000D
:100444009B218830F621DF306F211830F100803095
:10045400F200F301F30A9B21C030F6211430F100BD
:100464008030F2000330F3009B21C830F621DF30E6
:100474006F211830F1008030F200F301F30A9B2160
:100484000800F501F31F472A482A4F2AF209F30905
:10049400F20A0319F30AF501F50AF11F522A532A45
:1004A400582AF009F109F00A0319F10A70087104D5
:1004B40003195D2A5E2A8D2AF401F40A6C2A01309C
:1004C4000310F00DF10DFF3E031D622A0130FF0001
:1004D4007F08F407F11F6F2A702A612A71087302DA
:1004E400031D762A70087202031C792A7A2A802A4C
:1004F4007008F2027108031CF303F30201300310C5
:10050400F10CF00CFF3E031D812A0130F402031D9F
:100514008C2A8D2A702A75080319912A922A972AFF
:10052400F209F309F20A0319F30A7308F1007208D5
:10053400F0000800790883120313A1007808A000D2
:100544002008723EA60021080318013EF53EA700CC
:10055400A71FAD2AAE2AB62AA609A709A60A031917
:10056400A70A2D30BF00B82A2030BF000A30F0009F
:100574000030F1002708F3002608F200FA2271087F
:1005840083120313A5007008A4000A30F0000030A1
:10059400F1002708F3002608F200432271088312B1
:1005A4000313A3007008A2000A30F0000030F10029
:1005B4002508F3002408F200FA227008303E831262
:1005C4000313C0000A30F0000030F1002508F300E6
:1005D4002408F20043227008303E83120313C10042
:1005E4002E30C2002208303EC300C4013F30080050
:1005F400F501F11FFE2AFF2A062BF009F109F00A82
:100604000319F10AF501F50AF31F092B0A2B132B21
:10061400F209F309F20A0319F30A0130FF007F0813
:10062400F506F601F7017008710403191A2B1B2B48
:10063400522BF401F40A292B01300310F00DF10DB3
:10064400FF3E031D1F2B0130FF007F08F407F11F3D
:100654002C2B2D2B1E2B01300310F60DF70DFF3E16
:10066400031D2E2B71087302031D3A2B70087202AE
:10067400031C3D2B3E2B452B7008F2027108031C12
:10068400F303F302761401300310F10CF00CFF3E77
:10069400031D462B0130F402031D512B522B2D2B2D
:1006A40075080319562B572B5C2BF609F709F60A24
:1006B4000319F70A7708F1007608F000080083129E
:1006C40003132A080319672B682BA32BC330F621C5
:1006D400831203132908F9002808F8009C22FA0061
:1006E4007A08F1000030F2000530F3009B218312F8
:1006F40003132C08031D7F2B802B992B2B08031924
:10070400842B852B8F2BCC30F6210B30F1008030DD
:10071400F2000430F3009B21DD2BCC30F6210630AF
:10072400F1008030F2000430F3009B21DD2BCC304B
:10073400F6210130F1008030F2000430F3009B21F7
:10074400DD2B8330F621831203132908F9002808CE
:10075400F8009C22FB007B08F1000030F200053019
:10076400F3009B21831203132C08031DBA2BBB2B0C
:10077400D42B2B080319BF2BC02BCA2B8C30F6218A
:100784000B30F1008030F2000430F3009B21DD2BAC
:100794008C30F6210630F1008030F2000430F30092
:1007A4009B21DD2B8C30F6210130F1008030F200EA
:1007B4000430F3009B210800FA01FB01F401F50168
:1007C400831203138519E72BE82BEA2B0030902CB6
:1007D4000130F4070318F50A0030F5077508803A6C
:1007E400FF0080307F02031DF92B0F307402031CBD
:1007F400FC2BFD2BE22B122C7B08803AFF0080306F
:100804007F02031D072C06307A02031C0A2C0B2CD2
:100814000C2CE82B0130FA070318FB0A0030FB0705
:10082400831203138519172C182CFE2BFA01FB01D4
:10083400F601F70183120313851D212C222C232C8E
:10084400E82B0130F6070318F70A0030F70777089A
:10085400803AFF0080307F02031D322C073076027D
:10086400031C352C362C1C2C4B2C7B08803AFF00A7
:1008740080307F02031D402C0B307A02031C432C72
:10088400442C452CE82B0130FA070318FB0A0030EE
:10089400FB0783120313851D502C512C372CFA01AE
:1008A400FB01F801F9018312031385195A2C5B2CFF
:1008B4005C2CE82B0130F8070318F90A0030F9071B
:1008C4007908803AFF0080307F02031D6B2C0730CB
:1008D4007802031C6E2C6F2C552C842C7B08803AD8
:1008E400FF0080307F02031D792C0B307A02031C39
:1008F4007C2C7D2C7E2CE82B0130FA070318FB0A94
:100904000030FB07831203138519892C8A2C702C61
:100914000D30F0000030F10089210130080083120D
:100924000313B601B701BD01BE01B901BA01B80193
:100934000530F0000030F100892183120313050C07
:10094400AD00AD0C2D0C0139FF007F08B806050C75
:10095400AD00AD0C2D0C0139AE00AF013708B1006C
:100964003608B0000310B00DB10D2E083004B200EB
:100974002F083104B3003208B6003308B700051657
:100984000A30F0000030F100892183120313050CB2
:10099400AD00AD0C2D0C0139FF007F08B806050C25
:1009A400AD00AD0C2D0C0139AE00AF013708B1001C
:1009B4003608B0000310B00DB10D2E083004B2009B
:1009C4002F083104B3003208B6003308B70005120B
:1009D4000D30F0000030F100892183120313050C5F
:1009E400AD00AD0C2D0C0139FF007F08B806050CD5
:1009F400AD00AD0C2D0C0139AE00AF013708B100CC
:100A04003608B0000310B00DB10D2E083004B2004A
:100A14002F083104B3003208B6003308B7000516B6
:100A24000D30F0000030F100892183120313851D7D
:100A34001C2D1D2D172D1230F0000030F1008921DE
:100A440083120313050CAD00AD0C2D0C0139FF000E
:100A54007F08B806050CAD00AD0C2D0C0139AE00B5
:100A6400AF013E08B1003D08B0000310B00DB10D58
:100A74002E083004B2002F083104B3003208BD0040
:100A84003308BE0005120D30F0000030F10089215A
:100A940083120313050CAD00AD0C2D0C0139FF00BE
:100AA4007F08B806050CAD00AD0C2D0C0139AE0065
:100AB400AF013E08B1003D08B0000310B00DB10D08
:100AC4002E083004B2002F083104B3003208BD00F0
:100AD4003308BE0005160D30F0000030F100892106
:100AE40083120313050CAD00AD0C2D0C0139FF006E
:100AF4007F08B806050CAD00AD0C2D0C0139AE0015
:100B0400AF013E08B1003D08B0000310B00DB10DB7
:100B14002E083004B2002F083104B3003208BD009F
:100B24003308BE0005120D30F0000030F1008921B9
:100B340083120313050CAD00AD0C2D0C0139FF001D
:100B44007F08B806050CAD00AD0C2D0C0139AE00C4
:100B5400AF013E08B1003D08B0000310B00DB10D67
:100B64002E083004B2002F083104B3003208BD004F
:100B74003308BE0005160D30F0000030F100892165
:100B840083120313050CAD00AD0C2D0C0139FF00CD
:100B94007F08B806050CAD00AD0C2D0C0139AE0074
:100BA400AF013E08B1003D08B0000310B00DB10D17
:100BB4002E083004B2002F083104B3003208BD00FF
:100BC4003308BE0005120D30F0000030F100892119
:100BD40083120313851DEF2DF02DEA2D1230F00042
:100BE4000030F100892183120313050CAD00AD0C14
:100BF4002D0C0139FF007F08B806050CAD00AD0CC3
:100C04002D0C0139AE00AF013E08B1003D08B00023
:100C14000310B00DB10D2E083004B2002F083104BA
:100C2400B3003208BD003308BE0005160D30F000D5
:100C34000030F100892183120313050CAD00AD0CC3
:100C44002D0C0139FF007F08B806050CAD00AD0C72
:100C54002D0C0139AE00AF013E08B1003D08B000D3
:100C64000310B00DB10D2E083004B2002F0831046A
:100C7400B3003208BD003308BE0005120D30F00089
:100C84000030F100892183120313050CAD00AD0C73
:100C94002D0C0139FF007F08B806050CAD00AD0C22
:100CA4002D0C0139AE00AF013E08B1003D08B00083
:100CB4000310B00DB10D2E083004B2002F0831041A
:100CC400B3003208BD003308BE0005160D30F00035
:100CD4000030F100892183120313050CAD00AD0C23
:100CE4002D0C0139FF007F08B806050CAD00AD0CD2
:100CF4002D0C0139AE00AF013E08B1003D08B00033
:100D04000310B00DB10D2E083004B2002F083104C9
:100D1400B3003208BD003308BE0005120D30F000E8
:100D24000030F100892183120313050CAD00AD0CD2
:100D34002D0C0139FF007F08B806050CAD00AD0C81
:100D44002D0C0139AE00AF013E08B1003D08B000E2
:100D54000310B00DB10D2E083004B2002F08310479
:100D6400B3003208BD003308BE0005160D30F00094
:100D74000030F100892183120313851DC22EC32E76
:100D8400BD2E1230F0000030F100892183120313CC
:100D9400050CAD00AD0C2D0C0139FF007F08B80621
:100DA400050CAD00AD0C2D0C0139AE00AF013A08B5
:100DB400B1003908B0000310B00DB10D2E08300495
:100DC400B2002F083104B3003208B9003308BA0066
:100DD40005120D30F0000030F10089218312031355
:100DE400050CAD00AD0C2D0C0139FF007F08B806D1
:100DF400050CAD00AD0C2D0C0139AE00AF013A0865
:100E0400B1003908B0000310B00DB10D2E08300444
:100E1400B2002F083104B3003208B9003308BA0015
:100E240005160D30F0000030F10089218312031300
:100E3400050CAD00AD0C2D0C0139FF007F08B80680
:100E440005121A30F0000030F100892183120313D7
:100E54003E08AE003D08AD002E08AD00AE01FF30E7
:100E64002D05AF0000302E05B000FF303D05B10068
:100E740000303E05B2003108B200B1012F08310440
:100E8400BB0030083204BC003C08AE003B08AD0097
:100E940004300310AE0CAD0CFF3E031D4B2F0F307E
:100EA4002D05AF000F302E05B0000F303B05B1000B
:100EB4000F303C05B200B10EB20EF030B20531086D
:100EC4000F39B204F030B1052F083104BB003008EB
:100ED4003204BC003C08AE003B08AD000310AE0C6D
:100EE400AD0C0310AE0CAD0C33302D05AF00333018
:100EF4002E05B00033303B05B10033303C05B20061
:100F04000310B10DB20D0310B10DB20D2F08310451
:100F1400BB0030083204BC003C08AE003B08AD0006
:100F24000310AE0CAD0C55302D05AF0055302E0519
:100F3400B00055303B05B10055303C05B2000310FC
:100F4400B10DB20D2F083104BB0030083204BC00CF
:100F54003C08AE003B08AD0006300310AE0CAD0CEF
:100F6400FF3E031DAF2F2D08BB002E08BC00B501AA
:100F7400B401033039063A04031DC12FC22FC52F13
:100F8400B501B50ACF2F39083A04031DCA2FCB2F58
:100F9400CD2FB501CF2FB401B40A3C08AE003B08F5
:100FA400AD000310AE0CAD0C0310AE0CAD0C031071
:100FB400AE0CAD0C3C08F1003B08F0000530F2002B
:100FC4000030F300D121831203132D087002A8000E
:100FD4002E08031C2E0A7102A900AA013508AB00D1
:100FE4003408AC006123080083120313BF01C0015D
:0C0FF400C101C201C301C4018301B32983
:02400E00103F61
:00000001FF
