:10000000FE2F00308A000408840A8207003431344D
:100010003A3420342D34313433342E3439340034EE
:1000200032343A3420342034313439342E343934B3
:1000300000344334203420343134303430342534E7
:1000400000344334203420342034203439342534EF
:0200500000347A
:100EC00083120313850186018316031386018501AE
:100ED00008007108F3007008F200742F0130F2026C
:100EE0000030031CF303F30272087304031D792F0F
:100EF0007A2F6E2F0800F600F701872F7708760704
:100F0000840001208E270130FF007F08F707750855
:100F10007702031C8C2F8D2F7E2F0800F4000130E8
:100F2000831203138500740886003230F00000300D
:100F3000F100692705308312031385003230F00079
:100F40000030F10069270130831203138500080087
:100F5000F400740883120313860005080319B12FE7
:100F6000B22FB82F85013230F0000030F100692730
:100F70000A30F0000030F1006927831203130515D1
:100F80003230F0000030F10069278312031305119D
:100F90006430F0000030F1006927080060276430F9
:100FA000F0000030F10069273830A8270E30A8275C
:100FB0000130A8270630A827C830F0000030F10023
:100FC00069270830F50001307B27DF308E27073096
:100FD000F5001B307B27C830F0000030F100692796
:100FE000C030A8270830F5000A307B27DF308E2775
:100FF0000730F50013307B27FC2F00288301CE2F0C
:02400E00103F61
:00000001FF
