:10000000FE2F00308A000408840A8207003431344D
:100010003A3420342D34313433342E3439340034EE
:1000200032343A3420342034313439342E343934B3
:1000300000344334203420343134303430342534E7
:1000400000344334203420342034203439342534EF
:100050000034463465346A346C34003420344C3413
:100060006134763400344F346B3461347934003485
:10085200C330831603138100080006308316031386
:100862009F008312031385018601831603138601F9
:100872000830850008007108F3007008F200472C68
:100882000130F2020030031CF303F3027208730416
:10089200031D4C2C4D2C412C0800F700F6015A2C5C
:1008A200760877078400012061240130FF007F0869
:1008B200F60775087602031C5F2C602C512C080089
:1008C200F40001308312031385007408860032306D
:1008D200F0000030F1003C24053083120313850040
:1008E2003230F0000030F1003C2401308312031357
:1008F20085000800F40074088312031386000508BB
:100902000319842C852C8B2C85013230F0000030A9
:10091200F1003C240A30F0000030F1003C24831244
:10092200031305153230F0000030F1003C2483122D
:10093200031305116430F0000030F1003C2408007C
:100942002E2429246430F0000030F1003C24383099
:100952007B240E307B2401307B2406307B24C8307C
:10096200F0000030F1003C240830F50001304E2444
:10097200DF3061240730F5001B304E24C830F00010
:100982000030F1003C24C0307B240830F5000A30EE
:100992004E24DF3061240730F50013304E24C83076
:1009A200F0000030F1003C2483120313851DDA2C81
:1009B200DB2CD52CE424003A0319E02CE12CD52CB5
:1009C2005225D52C0028F401F50183120313851951
:1009D200EB2CEC2CEE2C0030512D0130F4070318D7
:1009E200F50A0030F5077508803AFF0080307F0273
:1009F200031DFD2C0F307402031C002D012DE62C6B
:100A0200831203138519062D072D012DF601F70117
:100A120083120313851D0E2D0F2D102DEC2C01308A
:100A2200F6070318F70A0030F7077708803AFF0045
:100A320080307F02031D1F2D07307602031C222DFA
:100A4200232D092D83120313851D282D292D232DD6
:100A5200F801F901831203138519302D312D322D3E
:100A6200EC2C0130F8070318F90A0030F90779086D
:100A7200803AFF0080307F02031D412D073078024B
:100A8200031C442D452D2B2D8312031385194A2D4A
:100A92004B2D452D0D30F0000030F1003C2401308B
:100AA200080083120313AA01AB01AC01AD01A80136
:100AB200A901A7010530F0000030F1003C248312A7
:100AC2000313050CA000A00C200C0139FF007F08C5
:100AD200A706050CA000A00C200C0139A100A20160
:100AE2002B08A4002A08A3000310A30DA40D2108BB
:100AF2002304A50022082404A6002508AA0026082B
:100B0200AB0005160A30F0000030F1003C248312DD
:100B12000313050CA000A00C200C0139FF007F0874
:100B2200A706050CA000A00C200C0139A100A2010F
:100B32002B08A4002A08A3000310A30DA40D21086A
:100B42002304A50022082404A6002508AA002608DA
:100B5200AB0005120D30F0000030F1003C2483128E
:100B62000313050CA000A00C200C0139FF007F0824
:100B7200A706050CA000A00C200C0139A100A201BF
:100B82002B08A4002A08A3000310A30DA40D21081A
:100B92002304A50022082404A6002508AA0026088A
:100BA200AB0005160D30F0000030F1003C2483123A
:100BB2000313050CA000A00C200C0139FF007F08D4
:100BC200A706050CA000A00C200C0139A100A2016F
:100BD2002D08A4002C08A3000310A30DA40D2108C6
:100BE2002304A50022082404A6002508AC00260838
:100BF200AD0005120C30F0000030F1003C248312ED
:100C02000313050CA000A00C200C0139FF007F0883
:100C1200A706050CA000A00C200C0139A100A2011E
:100C22002D08A4002C08A3000310A30DA40D210875
:100C32002304A50022082404A6002508AC002608E7
:100C4200AD0005160D30F0000030F1003C24831297
:100C52000313050CA000A00C200C0139FF007F0833
:100C6200A706050CA000A00C200C0139A100A201CE
:100C72002D08A4002C08A3000310A30DA40D210825
:100C82002304A50022082404A6002508AC00260897
:100C9200AD0005120D30F0000030F1003C2483124B
:100CA2000313050CA000A00C200C0139FF007F08E3
:100CB200A706050CA000A00C200C0139A100A2017E
:100CC2002D08A4002C08A3000310A30DA40D2108D5
:100CD2002304A50022082404A6002508AC00260847
:100CE200AD0005160C30F0000030F1003C248312F8
:100CF2000313050CA000A00C200C0139FF007F0893
:100D0200A706050CA000A00C200C0139A100A2012D
:100D12002D08A4002C08A3000310A30DA40D210884
:100D22002304A50022082404A6002508AC002608F6
:100D3200AD0005120D30F0000030F1003C248312AA
:100D42000313050CA000A00C200C0139FF007F0842
:100D5200A706050CA000A00C200C0139A100A201DD
:100D62002D08A4002C08A3000310A30DA40D210834
:100D72002304A50022082404A6002508AC002608A6
:100D8200AD0005160D30F0000030F1003C24831256
:100D92000313050CA000A00C200C0139FF007F08F2
:100DA200A706050CA000A00C200C0139A100A2018D
:100DB2002D08A4002C08A3000310A30DA40D2108E4
:100DC2002304A50022082404A6002508AC00260856
:100DD200AD0005120C30F0000030F1003C2483120B
:100DE2000313050CA000A00C200C0139FF007F08A2
:100DF200A706050CA000A00C200C0139A100A2013D
:100E02002D08A4002C08A3000310A30DA40D210893
:100E12002304A50022082404A6002508AC00260805
:100E2200AD0005160D30F0000030F1003C248312B5
:100E32000313050CA000A00C200C0139FF007F0851
:100E4200A706050CA000A00C200C0139A100A201EC
:100E52002D08A4002C08A3000310A30DA40D210843
:100E62002304A50022082404A6002508AC002608B5
:100E7200AD0005120D30F0000030F1003C24831269
:100E82000313050CA000A00C200C0139FF007F0801
:100E9200A706050CA000A00C200C0139A100A2019C
:100EA2002D08A4002C08A3000310A30DA40D2108F3
:100EB2002304A50022082404A6002508AC00260865
:100EC200AD0005160C30F0000030F1003C24831216
:100ED2000313050CA000A00C200C0139FF007F08B1
:100EE200A706050CA000A00C200C0139A100A2014C
:100EF2002908A4002808A3000310A30DA40D2108AB
:100F02002304A50022082404A6002508A800260818
:100F1200A90005120D30F0000030F1003C248312CC
:100F22000313050CA000A00C200C0139FF007F0860
:100F3200A706050CA000A00C200C0139A100A201FB
:100F42002908A4002808A3000310A30DA40D21085A
:100F52002304A50022082404A6002508A8002608C8
:100F6200A90005160D30F0000030F1003C24831278
:100F72000313050CA000A00C200C0139FF007F0810
:100F8200A70605121A30F0000030F1003C24803030
:100F92007B24831203132A08303E61248C307B2485
:100FA200831203132908803AFF0080307F02031D59
:100FB200DC2F03302802031CDF2FE02FE52F043043
:100FC200F5002D304E24FD2F831203132908803A99
:100FD200FF0080307F02031DF02F0130280203182A
:100FE200F32FF42FF92F0430F50028304E24FD2F73
:0E0FF2000430F50023304E2408008301A12CAA
:02400E00103F61
:00000001FF
