:10000000F32FFF1B0B2883137F1883170008840A24
:100010000319FF0A080000308A000408840A8207D6
:10002000003420344C346F34773400344F346B3424
:1000300061347934003431343A3420340034323489
:0A0040003A34203400344334003415
:100A62008312031385018601831603138601850110
:100A72000800F0000130831203138500700886001D
:100A8200053085000130850008007108F300700808
:100A9200F200512D0130F2020030031CF303F30285
:100AA20072087304031D562D572D4B2D0800F401B7
:100AB200672D74087107840072080318720A831282
:100AC2000313FF0001203A250130F4077308740272
:100AD200031C6C2D6D2D5A2D0800F401F501701CBC
:100AE200732D742D7A2D7208F4070318F50A730812
:100AF200F50701300310F20DF30DFF3E031D7B2DB0
:100B020001300310F10CF00CFF3E031D822D700822
:100B12007104031D8D2D8E2D702D7508F100740842
:100B2200F0000800F400740883120313860005081D
:100B320003199C2D9D2DA32D85013230F00000302C
:100B4200F10046250A30F0000030F10046258312FC
:100B5200031305153230F0000030F10046258312F0
:100B6200031305116430F0000030F100462508003F
:100B72000B30F1008030F2000330F300582588304A
:100B82009325DF303A251330F1008030F200F30173
:100B9200F30A5825C03093250F30F1008030F2005F
:100BA2000330F3005825C8309325DF303A2513303F
:100BB200F1008030F200F301F30A582508003125D4
:100BC2006430F0000030F1004625383093250E30B5
:100BD20093250130932506309325C830F00000306C
:100BE200F1004625B9253130FA002930FB00FC011D
:100BF200FD01FD0A6E260030FA002930FB00FC01DF
:100C0200FC0AFD01FD0A6E260030FA002830FB00C6
:100C1200FC01FD01FD0A6E263130FA002930FB008D
:100C2200FC01FC0AFD016E26F42D0028F501F31FDC
:100C32001B2E1C2E232EF209F309F20A0319F30AC2
:100C42000130F500F11F262E272E2C2EF009F10976
:100C5200F00A0319F10A700871040319312E322EB9
:100C62005F2E0130F4003E2E01300310F00DF10D25
:100C7200FF3E031D362E0130F407F11F412E422E96
:100C8200352E71087302031D482E70087202031C70
:100C92004B2E4C2E522E7008F2027108031CF303E5
:100CA200F30201300310F10CF00CFF3E031D532E32
:100CB2000130F402031D5E2E5F2E422E75080319C9
:100CC200632E642E692EF209F309F20A0319F30A5C
:100CD2007308F1007208F00008007C080319722EF4
:100CE200732E9D2EC33093257B08F9007A08F800F5
:100CF2002A2783120313B6003608F1000030F200EF
:100D02000530F30058257D080319882E892E932E6D
:100D1200CC3093250630F1008030F2000430F3002D
:100D22005825C62ECC3093250130F1008030F200D8
:100D32000430F3005825C62E833093257B08F90032
:100D42007A08F8002A2783120313B7003708F10044
:100D52000030F2000530F30058257D080319B22E49
:100D6200B32EBD2E8C3093250630F1008030F20078
:100D72000430F3005825C62E8C3093250130F10043
:100D82008030F2000430F30058250800F501F11F0D
:100D9200CB2ECC2ED32EF009F109F00A0319F10A59
:100DA2000130F500F31FD62ED72EDE2EF209F309FD
:100DB200F20A0319F30A0130F506F601F701700889
:100DC20071040319E52EE62E1B2F0130F400F22EDA
:100DD20001300310F00DF10DFF3E031DEA2E01302C
:100DE200F407F11FF52EF62EE92E01300310F60D51
:100DF200F70DFF3E031DF72E71087302031D032F2B
:100E020070087202031C062F072F0E2F7008F202C1
:100E12007108031CF303F302761401300310F10C82
:100E2200F00CFF3E031D0F2F0130F402031D1A2F99
:100E32001B2FF62E750803191F2F202F252FF609B9
:100E4200F709F60A0319F70A7708F1007608F000A5
:100E52000800790883120313A1007808A000210E6C
:100E62000F39A000A1010F302005A6000030210596
:100E7200A7007908A1007808A0002108A000A1011C
:100E82000F302005A80000302105A9007908A10033
:100E92007808A00004300310A10CA00CFF3E031D33
:100EA2004C2F0F302005AA0000302105AB000F3077
:100EB2007805AC0000307905AD002708F10026085E
:100EC200F000E830F2000330F3006E257008831260
:100ED2000313A0007108A1002908F1002808F000FE
:100EE2006430F2000030F3006E25700883120313A1
:100EF2002007A20071080318710A2107A3002B081A
:100F0200F1002A08F0000A30F2000030F3006E25EA
:100F12007008831203132207A40071080318710AD0
:100F22002307A5002C082407AE002D0803182D0A5C
:100F32002507AF002E08553EB4002F080318013EC6
:100F4200F53EB500B51FA62FA72FAF2FB409B509DF
:100F5200B40A0319B50A2D30B800B12F2030B800F9
:100F62000A30F0000030F1003508F3003408F200D6
:100F7200C726710883120313B3007008B2000A3047
:100F8200F0000030F1003508F3003408F2001726B3
:100F9200710883120313B1007008B0000A30F00028
:100FA2000030F1003308F3003208F200C72670085F
:100FB200303E83120313B9000A30F0000030F10012
:100FC2003308F3003208F20017267008303E83120D
:100FD2000313BA002E30BB003008303EBC00BD0106
:100FE2003830080083120313B801B901BA01BB01FA
:0E0FF200BC01BD01BE01BF01C0018301E02DA5
:02400E00103F61
:00000001FF
